:020000040800F2
:1000000000200020E51B0008D90B0008DB0B0008CE
:1000100000000000000000000000000000000000E0
:10002000000000000000000000000000DD0B0008E0
:100030000000000000000000DF0B0008E10B0008DA
:10004000351C0008351C0008351C0008351C00084C
:10005000351C000859080008351C0008351C00082C
:10006000351C0008351C0008351C0008E90B000889
:10007000351C0008351C0008351C0008351C00081C
:10008000351C0008351C000800000000351C000865
:10009000351C0008351C0008351C0008351C0008FC
:1000A000351C0008351C0008351C0008351C0008EC
:1000B000351C000800000000351C0008000000008E
:1000C00010B5064C2378002B07D1054B002B02D02E
:1000D000044800E000BF0123237010BD700600201B
:1000E0000000000098250008044B10B5002B03D039
:1000F0000349044800E000BF10BDC04600000000F6
:10010000740600209825000803B471464908400091
:100110004900095E49008E4403BC70470022430831
:100120008B4274D303098B425FD3030A8B4244D3BF
:10013000030B8B4228D3030C8B420DD3FF22090201
:1001400012BA030C8B4202D31212090265D0030BC0
:100150008B4219D300E0090AC30B8B4201D3CB03B6
:10016000C01A5241830B8B4201D38B03C01A5241F8
:10017000430B8B4201D34B03C01A5241030B8B42FA
:1001800001D30B03C01A5241C30A8B4201D3CB02E5
:10019000C01A5241830A8B4201D38B02C01A5241CA
:1001A000430A8B4201D34B02C01A5241030A8B42CD
:1001B00001D30B02C01A5241CDD2C3098B4201D3E5
:1001C000CB01C01A524183098B4201D38B01C01A63
:1001D000524143098B4201D34B01C01A52410309DA
:1001E0008B4201D30B01C01A5241C3088B4201D389
:1001F000CB00C01A524183088B4201D38B00C01A36
:10020000524143088B4201D34B00C01A5241411A5C
:1002100000D20146524110467047FFE701B5002069
:1002200000F0F0F802BDC0460029F7D076E770472D
:1002300003460B437FD4002243088B4274D3030947
:100240008B425FD3030A8B4244D3030B8B4228D3E8
:10025000030C8B420DD3FF22090212BA030C8B420E
:1002600002D31212090265D0030B8B4219D300E0AE
:10027000090AC30B8B4201D3CB03C01A5241830B33
:100280008B4201D38B03C01A5241430B8B4201D3E3
:100290004B03C01A5241030B8B4201D30B03C01A0C
:1002A0005241C30A8B4201D3CB02C01A5241830A86
:1002B0008B4201D38B02C01A5241430A8B4201D3B5
:1002C0004B02C01A5241030A8B4201D30B02C01ADF
:1002D0005241CDD2C3098B4201D3CB01C01A524146
:1002E00083098B4201D38B01C01A524143098B42CF
:1002F00001D34B01C01A524103098B4201D30B01B8
:10030000C01A5241C3088B4201D3CB00C01A5241DC
:1003100083088B4201D38B00C01A524143088B42A1
:1003200001D34B00C01A5241411A00D2014652413A
:10033000104670475DE0CA0F00D04942031000D359
:100340004042534000229C4603098B422DD3030AAE
:100350008B4212D3FC22890112BA030A8B420CD3BE
:10036000890192118B4208D3890192118B4204D3E7
:1003700089013AD0921100E08909C3098B4201D367
:10038000CB01C01A524183098B4201D38B01C01AA1
:10039000524143098B4201D34B01C01A5241030918
:1003A0008B4201D30B01C01A5241C3088B4201D3C7
:1003B000CB00C01A524183088B4201D38B00C01A74
:1003C0005241D9D243088B4201D34B00C01A52414B
:1003D000411A00D20146634652415B10104601D3D8
:1003E0004042002B00D54942704763465B1000D362
:1003F000404201B5002000F005F802BD0029F8D008
:1004000016E770477047C04610B586B004AC0822A6
:100410000021200001F030FC1E4B5A698021C903E5
:100420000A435A615A690A400392039A5A69802121
:1004300089020A435A615A690A400292029A5A6929
:100440008021C9020A435A615B690B400193019BF9
:10045000114A93680F218B4393609021C905CB68A3
:100460000320834301221343CB600B6883430B605B
:100470000492227100236371A271200000F008FC35
:1004800000220021052000F067FC052000F094FC0C
:1004900006B010BD001002400000014000B583B05E
:1004A000094A51690123194351615269134001936B
:1004B000019B002200210B2000F04EFC0B2000F0DD
:1004C0007BFC03B000BDC0460010024082B00300B8
:1004D0004000C0180023019304E0C046C046019BC1
:1004E00001330193019B8342F7D302B070470000B0
:1004F00070B51420FFF7EAFF0A4CA36980252D028E
:100500002B43A3611420FFF7E1FFA26980231B06A0
:100510001343A3611420FFF7D9FFA3691D43A5610D
:1005200070BDC0460008004810B50400454A9169F6
:100530008023DB010B43936143B2002B46DB902207
:10054000D205916980231B060B439361630645D551
:100550009022D205916980235B010B439361A3062E
:1005600044D5394A916980239B000B439361E3068C
:1005700043D5354A916980235B000B439361FFF7B4
:10058000B7FF230740D59022D205916980231B0233
:100590000B43936163073FD59022D2059169802375
:1005A0005B010B439361A3073ED5274A91698023E2
:1005B0009B000B439361E4073DD5234A9169802357
:1005C0005B000B439361FFF793FF10BD9022D205B0
:1005D000916980231B020B439361B7E79022D205F8
:1005E000916980235B050B439361B8E7164A9169D3
:1005F00080239B040B439361B9E7134A91698023DD
:100600005B040B439361BAE79022D2059169802382
:100610001B060B439361BDE79022D20591698023AD
:100620005B050B439361BEE7074A916980239B04F6
:100630000B439361BFE7044A916980235B040B433A
:100640009361C0E7000800480004004870B5050049
:10065000002403E0FFF768FF0134E4B2285D0028BE
:10066000F8D170BD10B50400474A91698023DB05BD
:100670000B43936143B2002B49DB9022D205916971
:1006800080231B060B439361630648D59022D20555
:10069000916980235B010B439361A30647D53B4AD5
:1006A000916980239B000B439361E30646D5374A4B
:1006B000916980235B000B439361FFF719FF2307C8
:1006C00043D59022D205916980231B020B4393618D
:1006D000630742D59022D205916980235B010B43C9
:1006E0009361A30741D5294A916980239B000B435D
:1006F0009361E40740D5254A916980235B000B4351
:100700009361FFF7F5FE2248FFF7E0FE10BD90224F
:10071000D205916980231B020B439361B4E79022B9
:10072000D205916980235B050B439361B5E7174AB6
:10073000916980239B040B439361B6E7134A916947
:1007400080235B040B439361B7E79022D205916944
:1007500080231B060B439361BAE79022D20591696F
:1007600080235B050B439361BBE7084A91698023B3
:100770009B040B439361BCE7044A916980235B04AB
:100780000B439361BDE7C0460008004800040048E1
:10079000B80B000010B51B4B5969802292020A4326
:1007A0005A6159698022D2020A435A6159698022EA
:1007B00012030A435A619022D20511688223DB0595
:1007C0000B431360104A1168A023DB020B43136034
:1007D0000E4A1168A023DB050B4313600C48FFF79A
:1007E00075FE3320FFF73EFF3220FFF73BFF0C2062
:1007F000FFF738FF2820FFF735FF0120FFF732FF12
:1008000010BDC04600100240000400480008004827
:100810003075000070B504000B4D2A68D3680B4991
:100820000B40D3600A4E300000F079FB094B1A6888
:1008300080232100300000F037FB2A68D168802334
:100840009B000B43D36070BD0C070020FFFDFFFF32
:10085000C80600200000002010B500F013FA2C4B51
:1008600018609023DB051B69DB0704D5294B1B6847
:10087000C01A322817D80120FFF7F4FE264B18685B
:10088000FFF7E4FEC020FFF7EDFE244B1A68244971
:10089000244C200001F0D0F92000FFF7D7FE012002
:1008A00000F07EFC10BD204B1A68D3681F490B4036
:1008B000D3601F4800F033FB1E4C20780130032129
:1008C000FFF79CFDC9B22170012913D0022918D06D
:1008D000002908D00F4B0E4A12681A60164B186890
:1008E000FFF798FFC7E7144B144A1A600A4B144AE3
:1008F0001A60EFE7104B134A1A60074B124A1A604E
:10090000E8E70D4B114A1A60034B114A1A60E1E700
:10091000C00600209C070020100600200C020020CA
:10092000DC2500088C0600200C070020FFFDFFFFDF
:10093000C8060020C4060020080200200400002091
:10094000B025000810020020BC250008100400207B
:10095000CC25000872B6FEE700B58FB0102200214A
:100960000AA801F089F90822002108A801F084F9F9
:100970001C22002101A801F07FF920488023DB051B
:1009800003600023436083601D4A1268013AC2601D
:1009900003618033836100F05BFD002824D1802354
:1009A0005B010A9315480AA900F0CCFE00281DD16E
:1009B000124800F079FD00281AD10023089309930A
:1009C0000E4808A901F04CF8002813D10023019328
:1009D0000293039305930948002201A900F000FE49
:1009E000002809D10FB000BDFFF7B4FFFFF7B2FF39
:1009F000FFF7B0FFFFF7AEFFFFF7ACFF0C070020DB
:100A00000402002000B58FB0102200210AA801F0D6
:100A100033F90822002108A801F02EF91C22002138
:100A200001A801F029F92148214B0360002343600C
:100A30008360204AC26003618033836100F008FD57
:100A4000002828D180235B010A9318480AA900F0E6
:100A500079FE002821D1154800F052FD00281ED152
:100A6000002308930993114808A900F0F9FF002812
:100A700017D16023019300230293039305930B483E
:100A8000082201A900F0DAFD00280CD1074801F086
:100A90007BF80FB000BDFFF75DFFFFF75BFFFFF7CF
:100AA00059FFFFF757FFFFF755FFC04654070020D7
:100AB00000040040FF03000010B51A4A136801212A
:100AC0008B431360174B1B68DB07FBD4164A136874
:100AD00001210B431360144B1B689B07FBD5124B82
:100AE0001A68F8218A4378390A431A605A687031C3
:100AF0008A435A605A680D490A405A605A6803216D
:100B00008A435A60084B5B680C221A42FAD10848A3
:100B100001F062F8032000F071F8002800D110BD48
:100B2000FFF718FF0020024000100240FFF8FFFF0F
:100B300000127A0070B500F089F8FFF72BFEFFF77E
:100B4000BBFFFFF761FCFFF7A9FCFFF705FFFFF70D
:100B500059FF1748082100F005FF164C002120001E
:100B600000F082FE144B1A6814491548802300F0E7
:100B70009BF90120FFF776FD1248FFF7A7FC124B07
:100B80001868FFF763FDC020FFF76CFD0F4B1A6874
:100B90000F49104D280001F04FF82800FFF756FDCF
:100BA0002268D16880239B000B43D360FEE7C046D8
:100BB000540700200C070020000000200400002043
:100BC000C8060020B80B0000100600200C02002010
:100BD000DC2500088C060020FEE7FEE77047704722
:100BE00010B500F043F810BD10B5024800F0BCF994
:100BF00010BDC046C80600207047000010B50400B4
:100C00000F4B1978FA208000FFF788FA01000D4B8E
:100C10001868FFF783FA00F0DBF800280DD1032CE9
:100C200001D901200AE0013000222100404200F0F9
:100C300093F8054B1C60002000E0012010BDC04669
:100C400018060020140600201C06002010B5064AD5
:100C5000136810210B4313600320FFF7CFFF00F050
:100C600035FF002010BDC04600200240034A116835
:100C7000034B1B785B1813607047C046A007002029
:100C800018060020014B18687047C046A0070020D6
:100C900010B503000079002850D01A68002A57D0F8
:100CA0005879012818D0022820D000280BD0012024
:100CB0009A79002A4BD0022A2CD0032A34D0012A58
:100CC0001ED0012043E023494C6894434C601A68CD
:100CD0000C6822430A60EBE71E49086890430860ED
:100CE0001A68486802434A600020E1E71949086829
:100CF00002430A601A68486802434A600020D7E746
:100D00001C68144AD168A143D1601B6891680B43E9
:100D100093601CE01C680F4A9168A14391601B68B6
:100D2000D1680B43D36012E019680A4A94682143E2
:100D300091601B68D1680B43D36008E01C68054ACA
:100D40001168A1431160196853688B43536010BD4B
:100D50000020FCE70004014070B5002811DB830887
:100D6000134DC0339B005C5903221040C000FC327D
:100D700016008640B44389010A40824022435A51FA
:100D800070BD0F230340083B9B0806339B00094AB4
:100D9000944663445C6803221040C000FC32150096
:100DA0008540AC4389010A40824022435A60E7E70C
:100DB00000E100E000ED00E0002805DB1F23184003
:100DC0001E3B8340014A13607047C04600E100E0CB
:100DD000013880235B0498420FD2094A50600948C9
:100DE000036A1B021B0AC02109060B43036200238E
:100DF000936007331360002070470120FCE7C04672
:100E000010E000E000ED00E070B5066CC56B012459
:100E1000B4406C60046863604368102B04D00368BE
:100E200099600368DA6070BD03689A600368D960EE
:100E3000F9E7000010B504000068054B9C466044CB
:100E40001421FFF76BF980002064024BE36310BDAF
:100E5000F8FFFDBF0000024070B5041E20D0212520
:100E60000223435501680A680E4B1A4043688068A4
:100E70000343E06803432069034360690343A069B7
:100E80000343E069034313430B602000FFF7D2FFE5
:100E90000023A363012262551F32A354002070BDBA
:100EA0000120FCE70FC0FFFF70B504002020205C8C
:100EB000012832D02020012525540130205C012852
:100EC00004D020230022E254022070BD20300135DE
:100ED00025540020A063256828680126B0432860B7
:100EE0002000FFF791FFE36A002B0BD02268136804
:100EF0000E210B4313602268136801210B4313601A
:100F00000020E2E7226813680A210B43136022687D
:100F1000136806398B431360EDE70220D5E710B55F
:100F20002123C35C022B03D004238363012010BD63
:100F3000026813680E218B43136001680A6801235D
:100F40009A430A60016CC26B1C008C4054602122E1
:100F500083541F330022C254436B002B02D09847A6
:100F60000020E4E70020E2E770B5C36B1A6804686C
:100F70002568016C04238B401A4212D06B0710D5F0
:100F800023689B0603D42368042293432360016CE7
:100F9000C26B04238B405360C36A002B00D0984778
:100FA00070BD02238B401A4218D0AB0716D52368B8
:100FB0009B0606D423680A22934323602123093A1F
:100FC000C254016CC26B02238B4053602023002269
:100FD000C254836A002BE3D09847E1E708238B4093
:100FE0001A42DDD02D07DBD523680E229343236000
:100FF000016CC26B01231C008C405460836321226E
:1010000083541F330022C254036B002BC8D098476F
:10101000C6E70000F0B583B0002356E086685F00A5
:101020000324BC40A643CC68BC403443846044687D
:1010300094434E683609012232409A40224342606E
:1010400053E0DE080836B600375805321A409200E1
:101050000F249440A7430C69944022003A43325035
:1010600056E0032600E00026A64034003C4302324E
:101070009200444E9451444A9768EA433E00AE437E
:101080004C68E40201D53E002E433F4CA660E76861
:101090003E0016404C68A40201D53E002E433A4C57
:1010A000E66067683E0016404C68A40301D53E0028
:1010B0002E43354C6660266832404C68E40301D507
:1010C0002A003243304C226001330C682200DA409F
:1010D00056D001229A40250015401442F4D04E68A3
:1010E00003243440013C012C98D94C68032222404F
:1010F000032A08D0C4685E000322B24094438A6881
:10110000B2402243C2604C6803222240022A98D097
:1011100004685E0003221700B740BC434F683A40A2
:10112000B240224302604C68C02292021442CBD0EB
:10113000164CA66901221643A661A46922400192B9
:10114000019A9A08941CA4000E4EA75903241C402F
:10115000A4000F26A640B7439026F605B04282D0E1
:101160000B4EB04208D00B4EB04207D00A4EB042F0
:1011700000D176E7052677E7012675E7022673E7B3
:1011800003B0F0BD00000140000401400010024027
:101190000004004800080048000C004870470000A8
:1011A00010B5054B5B69184200D110BD024B586168
:1011B000FFF7F4FFF9E7C0460004014030B5036AC9
:1011C000012293430362056A426883697324A3433F
:1011D0000C681C4302239D438B682B43154DA8428A
:1011E00008D0154DA84205D0144DA84202D0144D88
:1011F000A84206D10825AB431D00CB682B4304252C
:10120000AB430C4DA84208D00B4DA84205D00B4D66
:10121000A84202D00A4DA84205D10A4D2A404D6984
:1012200015438A692A43426084614A6842630362C3
:1012300030BDC046002C0140004001400044014048
:1012400000480140FFFCFFFF30B5036A194A134014
:101250000362046A4268C3697325AB430D681D438A
:10126000154B1C408B681B022343144CA04219D021
:10127000124CA04208D0124CA04205D0114CA04202
:1012800002D0114CA04207D1104C22404C692401DD
:1012900014438A69120122434260C5614A68C263ED
:1012A000036230BD0A4C1C40CB681B022343094C2F
:1012B0002340DDE7FFFEFFFFFFFDFFFF002C0140A5
:1012C000004001400044014000480140FFCFFFFFC3
:1012D000FFF7FFFFFFFBFFFF30B5036A134A134020
:1012E0000362046A4368C269114D2A400D682D02E9
:1012F0001543104A14408A68120322430E4CA04240
:1013000008D00E4CA04205D00D4CA04202D00D4C8E
:10131000A04204D10C4C1C404B699B012343436009
:10132000C5614B680364026230BDC046FFEFFFFF3A
:10133000FF8CFFFFFFDFFFFF002C0140004001405A
:101340000044014000480140FFBFFFFF30B5036A81
:10135000046A0125AC4304628469EF35AC43120191
:1013600022430A24A3430B438261036230BD000081
:1013700030B5036A1024A34303628469036A054DF0
:101380002C4012032243A024A34309011943826184
:10139000016230BDFF0FFFFF8368702293430B4350
:1013A000693A134383607047704770470368214A66
:1013B000904206D08022D205904202D01E4A90422E
:1013C00003D1702293434A6813431A4A904212D0C1
:1013D0008022D20590420ED0174A90420BD0174A75
:1013E000904208D0164A904205D0164A904202D048
:1013F000154A904203D1154A1A40CB681343802204
:1014000093434A69134303608B68C3620B6883622A
:10141000084B984208D00A4B984205D0094B984295
:1014200002D0094B984201D10B6903630123436148
:101430007047C046002C01400004004000200040DE
:10144000004001400044014000480140FFFCFFFF14
:1014500070B5041E26D03D23C35C002B1CD03D2557
:1014600002236355210001C9FFF7A0FF0123462293
:10147000A354083AA3540132A3540132A3540132B5
:10148000A3540132A3540132A3540132A3540132B4
:10149000A3546355002070BD3C330022C25400F0B9
:1014A0002DFBDCE70120F6E770B5041E26D03D23B6
:1014B000C35C002B1CD03D2502236355210001C9CC
:1014C000FFF774FF01234622A354083AA3540132C4
:1014D000A3540132A3540132A3540132A354013264
:1014E000A3540132A3540132A3546355002070BDAC
:1014F0003C330022C254FFF757FFDCE70120F6E738
:1015000070B5041E26D03D23C35C002B1CD03D25A6
:1015100002236355210001C9FFF748FF012346223A
:10152000A354083AA3540132A3540132A354013204
:10153000A3540132A3540132A3540132A354013203
:10154000A3546355002070BD3C330022C254FFF702
:101550002CFFDCE70120F6E770B5036A1022934305
:101560000362026A44688369174D2B400D682D029F
:101570001D4320239A438B681B011343134A904257
:1015800019D0124A904208D0114A904205D0114A0F
:10159000904202D0104A904207D1104A14404A6942
:1015A000920022438C69A4001443446085614A6818
:1015B0008263036270BD802293431E00CB681B01CF
:1015C0003343403A9343DCE7FF8CFFFF002C01409C
:1015D000004001400044014000480140FFF3FFFF8C
:1015E00010B504003C23C35C012B24D03C23012014
:1015F000E054082A1AD008D8002A12D0042A0CD1A4
:101600002068FFF7A9FF002007E00C2A04D120681A
:10161000FFF762FE002000E001203C230022E2549C
:1016200010BD2068FFF7CAFD0020F6E72068FFF72D
:101630000BFE0020F1E70220F2E7000070B5040085
:101640000D003C23C35C012B00D16AE03C23012147
:10165000C154082A50D01CD8002A38D0042A16D1E8
:1016600000682900FFF778FF2268916980231B0139
:101670000B439361226893692B490B409361216866
:101680008B692A69120213438B6100201BE008005A
:1016900019E00C2A16D100682900FFF71DFE226808
:1016A000D16980231B010B43D3612268D3691E4992
:1016B0000B40D3612168CB692A6912021343CB61C5
:1016C000002000E001203C230022E25470BD0068AD
:1016D0002900FFF773FD2268936908210B4393618A
:1016E0002268936904398B4393612268936929695D
:1016F0000B4393610020E6E700682900FFF7A4FD93
:101700002268D36908210B43D3612268D369043965
:101710008B43D3612268D36929690B43D3610020CD
:10172000D1E70220D2E7C046FFFBFFFF30B5846857
:10173000034D2C401B0213430B432343836030BDF6
:10174000FF00FFFF10B5040008003C23E35C012B01
:1017500000D177E03C230122E25401330132E2540C
:101760002268936838490B409360016860294FD024
:1017700029D8402957D00CD9502922D14168C268B4
:101780002068FFF7E3FD20685021FFF705FE0020E9
:1017900005E020290ED009D930290BD001203D23A6
:1017A0000122E254013B0022E25410BD002901D085
:1017B000102904D12068FFF7EFFD0020EFE701209A
:1017C000EDE70120EBE780225201914236D08022E2
:1017D000920191420DD181684268C3682068FFF789
:1017E000A5FF226891688023DB010B4393600020F2
:1017F000D5E7702924D181684268C3682068FFF763
:1018000095FF2268936877210B4393600020C6E719
:101810004168C2682068FFF7ABFD20686021FFF7D0
:10182000BBFD0020BBE74168C2682068FFF78EFD62
:1018300020684021FFF7B0FD0020B0E70020AEE7B0
:101840000120ACE70220B0E78800FFFF10B51F239E
:10185000194001248C40036AA3430362036A8A404F
:101860001343036210BD000010B50400002936D1F7
:101870003E23C35C013B5A1E9341DBB2002B62D175
:10188000002945D13E330222E25420680122FFF7AD
:10189000DDFF23682E4A934208D02E4A934205D09A
:1018A0002D4A934202D02D4A934204D1596C802292
:1018B00012020A435A642368254A934238D0802290
:1018C000D205934234D0264A934231D0214A9342E2
:1018D0002ED01A6801210A431A60002034E004293E
:1018E00008D008290DD04123C35C013B5A1E934107
:1018F000DBB2C3E73F23C35C013B5A1E9341DBB21B
:10190000BCE74023C35C013B5A1E9341DBB2B5E701
:10191000042905D0082907D041230222E254B4E764
:101920003F230222E254B0E740230222E254ACE714
:10193000996807220A40062A07D01A6801210A433B
:101940001A60002000E0012010BD0020FCE7C04626
:10195000002C01400040014000440140004801408B
:101960000004004010B50400002936D13E23C35CBA
:10197000013B5A1E9341DBB2002B62D1002945D1B5
:101980003E330222E25420680122FFF75FFF236802
:101990002E4A934208D02E4A934205D02D4A9342B4
:1019A00002D02D4A934204D1596C802212020A437C
:1019B0005A642368254A934238D08022D205934244
:1019C00034D0264A934231D0214A93422ED01A680D
:1019D00001210A431A60002034E0042908D00829B4
:1019E0000DD04123C35C013B5A1E9341DBB2C3E7D8
:1019F0003F23C35C013B5A1E9341DBB2BCE740234B
:101A0000C35C013B5A1E9341DBB2B5E7042905D004
:101A1000082907D041230222E254B4E73F230222DF
:101A2000E254B0E740230222E254ACE7996807226F
:101A30000A40062A07D01A6801210A431A600020CA
:101A400000E0012010BD0020FCE7C046002C014052
:101A500000400140004401400048014000040040B3
:101A600030B53C23C35C012B28D03C230122C25457
:101A700001330132C25403685C689D686E3294433E
:101A80000A6822435A6003680D4A934209D08022B3
:101A9000D205934205D00B4A934202D00A4A9342A0
:101AA00004D1802295434A682A439A603D2301224B
:101AB000C254013B0022C254002030BD0220FCE78A
:101AC000002C0140000400400040014082B00A4B5D
:101AD000996901221143996199690A400092009A1B
:101AE000DA69802149050A43DA61DB690B40019319
:101AF000019B02B07047C0460010024010B582B092
:101B0000040003688022D205934204D01A4A93420B
:101B100027D002B010BD194AD16901231943D16100
:101B2000D26913400093009B1548164B03601023A5
:101B30004360002383608022C2608132FF320261F1
:101B400080221201426120228261C361FFF784F981
:101B5000002803D10A4B63625C62DAE7FEF7FAFE03
:101B6000F8E7064AD16902231943D161D2691340CB
:101B70000193019BCDE7C0460004004000100240E5
:101B8000C80600205800024010B586B00400142298
:101B9000002101A800F070F822680C4B9A4201D095
:101BA00006B010BD0A4B5A698021C9020A435A6126
:101BB0005B690B400093009B012301930222029278
:101BC000059301A90348FFF725FAE9E7000400405F
:101BD0000010024000040048014B18607047C046E6
:101BE000140600200D488546FFF706F80C480D49FD
:101BF0000D4A002302E0D458C4500433C4188C4268
:101C0000F9D30A4A0A4C002301E013600432A242CD
:101C1000FBD300F039F8FEF78DFFFEE7002000202F
:101C20000000002070060020282600087006002012
:101C3000F0080020FEE700000EB400B50B499CB090
:101C40001DAB02900690079104910948094904CB05
:101C50000591006802A9019300F09CF90022029B03
:101C60001A701CB008BC03B01847C046FFFFFF7FC6
:101C70006C0600200802FFFF03008218934200D187
:101C8000704719700133F9E770B500260C4C0D4D03
:101C9000641BA410A64209D1002600F07DFC0A4C6A
:101CA0000A4D641BA410A64205D170BDB300EB58C9
:101CB00098470136EEE7B300EB5898470136F2E754
:101CC00020260008202600082426000820260008D8
:101CD0007047704770B50500002910D00C1F2368AD
:101CE000002B00DAE418280000F0E2F81D4A13681F
:101CF000002B05D163601460280000F0E1F870BD8E
:101D0000A34208D9206821188B42F3D119685B6877
:101D100009182160EEE71A005B68002B01D0A3428E
:101D2000F9D911685018A0420BD120680918501831
:101D300011608342E0D118685B68411811605360FC
:101D4000DAE7A04202D90C232B60D5E720682118DE
:101D50008B4203D119685B68091821606360546085
:101D6000CAE7C046E408002070B50F4E0D00316888
:101D70000400002902D100F0A1FB306029002000FE
:101D800000F09CFB431C0AD00323C51C9D43A842C2
:101D900007D0291A200000F091FB013001D1012564
:101DA0006D42280070BDC046E8080020F7B5032248
:101DB000CB1C9343083306001F000C2B38D20C2792
:101DC000B94237D8300000F073F8384B00931B68E5
:101DD0001C00002C33D139003000FFF7C5FF040090
:101DE000431C5ED1009B1C682500002D4ED1002CA9
:101DF00051D023682900E3183000019300F05EFB06
:101E0000019B834247D123683000FF1A3900FFF756
:101E1000ABFF01303FD02368DB192360009B1B68B8
:101E2000002B40D05A68A24233D100225A6014E0FD
:101E3000002BC5DA0C23002533602800FEBD216885
:101E4000C91B20D40B2918D9E2192760A34212D14B
:101E5000009B1A606368116053603000250000F039
:101E60002FF807220B35231D9543EA1A9D42E4D033
:101E70005B1BA350E1E75A60ECE76268A342D5D14F
:101E8000009B1A60E9E723006468A2E72C006D68F4
:101E9000ABE71300C4E70C233000336000F010F808
:101EA000CBE72760D9E75B60FFDEC046E40800208F
:101EB00010B50248FFF70CFF10BDC046E008002037
:101EC00010B50248FFF705FF10BDC046E00800202E
:101ED000F0B585B0019303928E68019A07000C005B
:101EE0000B68964231D88A899021C9000A4229D0CC
:101EF000032021695B1A029363694343DD0FED18E8
:101F0000019B029801331B186D10AB4200D91D00D4
:101F1000520529D529003800FFF748FF061E2DD0AD
:101F2000029A216900F0E7FAA289194B1A4080232E
:101F30001343A381029B2661F61826606561019E0A
:101F4000ED1AA560019B9E4200D9019E32000399C3
:101F5000206800F09FFA0020A3689B1BA360236801
:101F60009B19236005B0F0BD2A00380000F0CCFAC0
:101F7000061EDFD138002169FFF7ACFE0C230120DB
:101F80003B60A28934331343A3814042EAE7C04651
:101F90007FFBFFFFF0B5A1B003901D008B890F0000
:101FA00016001B0611D50B69002B0ED14021FFF73F
:101FB000FDFE38603861002805D10C23039A0138F2
:101FC000136021B0F0BD40237B61002308AC636146
:101FD000203363761033A376079535002B78002BDA
:101FE00001D0252B48D1AB1B0593B5420BD0320055
:101FF00039000398FFF76CFF013000D1AFE063694F
:10200000059A9B1863612B78002B00D1A7E0012271
:1020100000235242626004A9543252186E1C23609D
:10202000E360A3601370A365554B05221800317857
:10203000059300F055FA751C00281FD12268D306BD
:1020400004D5532304A95B1820211970130704D564
:10205000532304A95B182B21197033782A2B16D02F
:10206000350000210A20E3682A786E1C303A092ADC
:102070004ED9002911D117E00135AFE7059B226841
:10208000C01A0123834013432E002360CCE7079B33
:10209000191D1B680791002B01DB0B9304E05B42C9
:1020A000E3600223134323602B782E2B0AD16B7835
:1020B0002A2B35D1079B02351A1D1B680792002B6E
:1020C0002BDB09932F4E03223000297800F008FA09
:1020D000002806D04023801B83402268013513432B
:1020E00023602978062228486E1C217600F0F8F932
:1020F00000283CD0254B002B25D10722079B073316
:102100009343083307936369049A9B18636164E7F8
:102110004343350001219B18A6E701235B42D0E72A
:1021200000230A201A000135636029786E1C3039BB
:10213000092903D9002BC5D00992C3E742433500D2
:1021400001235218F1E707AA009221003A00104B30
:10215000039800E000BF0490049B0133D3D1BB89F6
:102160000D985B0600D42CE70120404229E707AA1E
:10217000009221003A00064B039800F07BF8EAE752
:10218000EB250008F1250008F525000800000000F7
:10219000D11E0008F7B5160001938A680B690C0080
:1021A0000090934200DA1300220033604332127829
:1021B000002A01D00133336023689B0602D53368BF
:1021C000023333602268062315001D401A4227D0CF
:1021D000230043331B785A1E93412268920630D461
:1021E000220001990098089D4332A847013025D06C
:1021F0000622236800251340042B05D13368E568C7
:10220000ED1AEB43DB171D40A3682269934201DD01
:102210009B1AED180026B54220D1002010E00135B0
:10222000E36832689B1AAB42D2DD22000123019998
:102230000098089F1932B8470130F0D10120404280
:10224000FEBD3020E1184331087021005A1C453191
:102250000978A218433202331170C1E7220001232A
:1022600001990098089F1A32B8470130E6D001362C
:10227000D1E70000F0B58BB006920A004332079315
:10228000059004920A7E0C00109B782A09D8622AD5
:102290000BD8002A00D1BEE07C490391582A00D116
:1022A00093E026004236327022E010006338152891
:1022B000F7D8FDF729FF16001F00F6FFF6FFF6FF1F
:1022C000F6FF1F00F6FFF6FFF6FFF6FFA30036004D
:1022D0008300F6FFF6FFB400F6FF3600F6FFF6FFC8
:1022E000870026001A684236111D19601368337082
:1022F0000123A2E018680968021D0D060BD50568C8
:102300001A60002D03DA2D23049A6D4213705F4B7F
:102310000A2703931BE005681A604906F1D52DB220
:10232000EFE70D681968081D18602E0601D50D68C5
:1023300003E06D06FBD50D68ADB2544B082703933F
:102340006F2A00D002372300002243331A706368DB
:10235000A360002B03DB042122688A432260002D46
:1023600002D1049E002B0CD0049E28003900FDF7FA
:102370005BFF039B013E5B5C33702B0005009F42BB
:10238000F3D9082F09D12368DB0706D562682369D2
:102390009A4202DC3023013E3370049B9B1B236175
:1023A000079B210000930598069B09AAFFF7F2FE00
:1023B000013047D1012040420BB0F0BD2022096816
:1023C0000A432260782232490391210045310A7084
:1023D0001968226820C9100602D4500600D5ADB293
:1023E0001960D30702D52023134323601027002D43
:1023F000A9D12022236893432360A4E71A680D68BB
:10240000101D4969186013682E0601D5196002E095
:102410006D06FBD519800023049E2361C0E71A686E
:10242000111D1960166800213000626800F058F82C
:10243000002801D0801B6060636823610023049A38
:102440001370ADE73200236906990598079DA847E8
:102450000130AFD023689B0715D4099BE0689842F0
:10246000AADA1800A8E72200012306990598079E1A
:102470001932B04701309DD00135E368099A9B1AA3
:10248000AB42F0DCE9E70025F7E7C046FC25000891
:102490000D26000810B5884202D98B18984203D344
:1024A000002307E08B5C8354013AFBD210BDCC5C67
:1024B000C45401339A42FAD1F8E70000002370B502
:1024C000064D040008002B6000F056F8431C03D1B1
:1024D0002B68002B00D0236070BDC046DC080020B4
:1024E000C9B28218904201D10020704703788B4214
:1024F000FBD00130F6E7002310B59A4200D110BDA1
:10250000CC5CC4540133F8E7F7B507000E001400A3
:10251000002905D11100FFF749FC05002800FEBD88
:10252000002A03D1FFF7D6FB2500F7E700F01BF8E0
:102530000190844203D835004308A342EED3210022
:102540003800FFF733FC051EE8D0019B22009C42B7
:1025500000D91A0031002800FFF7CDFF3100380004
:10256000FFF7B8FBDAE70B1F1B68181F002B01DA17
:102570000B58C01870470000054A03001168002975
:1025800001D1044911601068C31813607047C04638
:10259000EC080020F0080020F8B5C046F8BC08BCE4
:1025A0009E467047F8B5C046F8BC08BC9E467047CA
:1025B00053696E652057617665000000536177743A
:1025C0006F6F74682057617665000000547269610E
:1025D0006E676C6520576176650000004672657114
:1025E00075656E63793A2564487A00232D302B2077
:1025F00000686C4C006566674546470030313233F1
:10260000343536373839414243444546003031325B
:1026100033343536373839616263646566000000EB
:04262000E9000008C5
:04262400C1000008E9
:102628003C040040000200001902000032020000D1
:102638004B020000630200007C02000094020000CC
:10264800AC020000C3020000DA020000F102000040
:10265800060300001C0300003003000044030000D0
:1026680057030000690300007A0300008B03000091
:102678009A030000A9030000B6030000C30300008A
:10268800CE030000D8030000E1030000E9030000C6
:10269800F0030000F5030000F9030000FD0300004B
:1026A800FE030000FF030000FE030000FD0300001E
:1026B800F9030000F5030000F0030000E90300003F
:1026C800E1030000D8030000CE030000C3030000AC
:1026D800B6030000A90300009A0300008B03000062
:1026E8007A03000069030000570300004403000058
:1026F800300300001C03000006030000F102000084
:10270800DA020000C3020000AC02000094020000DC
:102718007C020000630200004B020000320200004D
:102728001902000000020000E6010000CD010000CF
:10273800B40100009C010000830100006B0100004F
:10274800530100003C010000250100000E010000BB
:10275800F9000000E3000000CF000000BB0000000B
:10276800A80000009600000085000000740000002A
:102778006500000056000000490000003C00000011
:1027880031000000270000001E00000016000000B5
:102798000F0000000A000000060000000200000010
:1027A800010000000000000001000000020000001D
:1027B800060000000A0000000F00000016000000DC
:1027C8001E00000027000000310000003C0000004F
:1027D8004900000056000000650000007400000079
:1027E8008500000096000000A8000000BB00000063
:1027F800CF000000E3000000F90000000E01000017
:10280800250100003C010000530100006B0100009D
:10281800830100009C010000B4010000CD0100000C
:10282800E6010000E204000004000020320000007D
:102838000000000008000000100000001800000060
:1028480020000000280000003000000038000000D0
:10285800400000004800000051000000590000003E
:1028680061000000690000007100000079000000AC
:10287800810000008900000091000000990000001C
:10288800A1000000A9000000B1000000B90000008C
:10289800C1000000C9000000D1000000D9000000FC
:1028A800E2000000EA000000F2000000FA00000068
:1028B800020100000A010000120100001A010000D4
:1028C800220100002A010000320100003A01000044
:1028D800420100004A010000520100005A010000B4
:1028E800620100006A010000730100007B01000022
:1028F800830100008B010000930100009B01000090
:10290800A3010000AB010000B3010000BB010000FF
:10291800C3010000CB010000D3010000DB0100006F
:10292800E3010000EB010000F3010000FB010000DF
:10293800040200000C020000140200001C02000047
:10294800240200002C020000340200003C020000B7
:10295800440200004C020000540200005C02000027
:10296800640200006C020000740200007C02000097
:10297800840200008C020000950200009D02000005
:10298800A5020000AD020000B5020000BD02000073
:10299800C5020000CD020000D5020000DD020000E3
:1029A800E5020000ED020000F5020000FD02000053
:1029B800050300000D030000150300001D030000BF
:1029C800260300002E030000360300003E0300002B
:1029D800460300004E030000560300005E0300009B
:1029E800660300006E030000760300007E0300000B
:1029F800860300008E030000960300009E0300007B
:102A0800A6030000AE030000B7030000BF030000E8
:102A1800C7030000CF030000D7030000DF03000056
:102A2800E7030000EF030000F7030000FF030000C6
:102A3800000000001000000020000000310000002D
:102A48004100000051000000610000007200000019
:102A58008200000092000000A2000000B300000005
:102A6800C3000000D3000000E3000000F4000000F1
:102A780004010000140100002401000035010000D9
:102A880045010000550100006501000075010000C6
:102A98008601000096010000A6010000B6010000B2
:102AA800C7010000D7010000E7010000F70100009E
:102AB8000802000018020000280200003802000086
:102AC8004902000059020000690200007902000072
:102AD8008A0200009A020000AA020000BA0200005E
:102AE800CA020000DB020000EB020000FB0200004B
:102AF8000B0300001C0300002C0300003C03000033
:102B08004C0300005D0300006D0300007D0300001E
:102B18008D0300009E030000AE030000BE0300000A
:102B2800CE030000DF030000EF030000FF030000F6
:102B3800FF030000EF030000DF030000CE030000E6
:102B4800BE030000AE0300009E0300008D030000DA
:102B58007D0300006D0300005D0300004C030000CE
:102B68003C0300002C0300001C0300000B030000C2
:102B7800FB020000EB020000DB020000CA020000BA
:102B8800BA020000AA0200009A0200008A020000AD
:102B980079020000690200005902000049020000A1
:102BA8003802000028020000180200000802000095
:102BB800F7010000E7010000D7010000C70100008D
:102BC800B6010000A6010000960100008601000081
:102BD8007501000065010000550100004501000075
:102BE8003501000024010000140100000401000068
:102BF800F4000000E3000000D3000000C300000060
:102C0800B3000000A2000000920000008200000053
:102C18007200000061000000510000004100000047
:102C2800310000002000000010000000000000003B
:102C3800B025000800127A0001000000040000001E
:102C480000000000A40700200C08002074080020E1
:102C5800000000000000000000000000000000006C
:102C6800000000000000000000000000000000005C
:102C7800000000000000000000000000000000004C
:102C880000000000000000000000000020060020F6
:0400000508001BE5EF
:00000001FF
